{
  "address": "0x5FbDB2315678afecb367f032d93F642f64180aa3",
  "abi": [
    {
      "inputs": [],
      "name": "HandlesAlreadySavedForRequestID",
      "type": "error"
    },
    {
      "anonymous": false,
      "inputs": [
        {
          "indexed": false,
          "internalType": "uint32",
          "name": "averageScore",
          "type": "uint32"
        },
        {
          "indexed": false,
          "internalType": "uint32",
          "name": "totalCount",
          "type": "uint32"
        }
      ],
      "name": "GlobalStatsPublished",
      "type": "event"
    },
    {
      "anonymous": false,
      "inputs": [
        {
          "indexed": false,
          "internalType": "uint256",
          "name": "requestId",
          "type": "uint256"
        }
      ],
      "name": "GlobalStatsRequested",
      "type": "event"
    },
    {
      "anonymous": false,
      "inputs": [
        {
          "indexed": true,
          "internalType": "uint256",
          "name": "entryId",
          "type": "uint256"
        },
        {
          "indexed": true,
          "internalType": "address",
          "name": "student",
          "type": "address"
        }
      ],
      "name": "GradeDeleted",
      "type": "event"
    },
    {
      "anonymous": false,
      "inputs": [
        {
          "indexed": true,
          "internalType": "uint256",
          "name": "entryId",
          "type": "uint256"
        },
        {
          "indexed": true,
          "internalType": "address",
          "name": "student",
          "type": "address"
        },
        {
          "indexed": false,
          "internalType": "string",
          "name": "subject",
          "type": "string"
        },
        {
          "indexed": false,
          "internalType": "uint256",
          "name": "timestamp",
          "type": "uint256"
        }
      ],
      "name": "GradeSubmitted",
      "type": "event"
    },
    {
      "anonymous": false,
      "inputs": [
        {
          "indexed": true,
          "internalType": "address",
          "name": "student",
          "type": "address"
        },
        {
          "indexed": false,
          "internalType": "uint32",
          "name": "averageScore",
          "type": "uint32"
        },
        {
          "indexed": false,
          "internalType": "uint32",
          "name": "count",
          "type": "uint32"
        }
      ],
      "name": "StudentStatsPublished",
      "type": "event"
    },
    {
      "anonymous": false,
      "inputs": [
        {
          "indexed": true,
          "internalType": "address",
          "name": "student",
          "type": "address"
        },
        {
          "indexed": false,
          "internalType": "uint256",
          "name": "requestId",
          "type": "uint256"
        }
      ],
      "name": "StudentStatsRequested",
      "type": "event"
    },
    {
      "inputs": [
        {
          "internalType": "uint256",
          "name": "entryId",
          "type": "uint256"
        }
      ],
      "name": "deleteGrade",
      "outputs": [],
      "stateMutability": "nonpayable",
      "type": "function"
    },
    {
      "inputs": [],
      "name": "entryCount",
      "outputs": [
        {
          "internalType": "uint256",
          "name": "",
          "type": "uint256"
        }
      ],
      "stateMutability": "view",
      "type": "function"
    },
    {
      "inputs": [],
      "name": "getEncryptedGlobalStats",
      "outputs": [
        {
          "internalType": "euint32",
          "name": "encryptedSum",
          "type": "bytes32"
        },
        {
          "internalType": "uint32",
          "name": "count",
          "type": "uint32"
        }
      ],
      "stateMutability": "view",
      "type": "function"
    },
    {
      "inputs": [
        {
          "internalType": "uint256",
          "name": "entryId",
          "type": "uint256"
        }
      ],
      "name": "getEncryptedScore",
      "outputs": [
        {
          "internalType": "euint32",
          "name": "",
          "type": "bytes32"
        }
      ],
      "stateMutability": "view",
      "type": "function"
    },
    {
      "inputs": [
        {
          "internalType": "address",
          "name": "student",
          "type": "address"
        }
      ],
      "name": "getEncryptedStudentStats",
      "outputs": [
        {
          "internalType": "euint32",
          "name": "encryptedSum",
          "type": "bytes32"
        },
        {
          "internalType": "uint32",
          "name": "count",
          "type": "uint32"
        }
      ],
      "stateMutability": "view",
      "type": "function"
    },
    {
      "inputs": [
        {
          "internalType": "uint256",
          "name": "entryId",
          "type": "uint256"
        }
      ],
      "name": "getEntry",
      "outputs": [
        {
          "internalType": "address",
          "name": "student",
          "type": "address"
        },
        {
          "internalType": "string",
          "name": "subject",
          "type": "string"
        },
        {
          "internalType": "uint256",
          "name": "timestamp",
          "type": "uint256"
        },
        {
          "internalType": "bool",
          "name": "isActive",
          "type": "bool"
        }
      ],
      "stateMutability": "view",
      "type": "function"
    },
    {
      "inputs": [],
      "name": "getEntryCount",
      "outputs": [
        {
          "internalType": "uint256",
          "name": "",
          "type": "uint256"
        }
      ],
      "stateMutability": "view",
      "type": "function"
    },
    {
      "inputs": [],
      "name": "getGlobalStats",
      "outputs": [
        {
          "internalType": "uint32",
          "name": "averageScore",
          "type": "uint32"
        },
        {
          "internalType": "uint32",
          "name": "totalCount",
          "type": "uint32"
        }
      ],
      "stateMutability": "view",
      "type": "function"
    },
    {
      "inputs": [
        {
          "internalType": "address",
          "name": "student",
          "type": "address"
        }
      ],
      "name": "getStudentEntries",
      "outputs": [
        {
          "internalType": "uint256[]",
          "name": "",
          "type": "uint256[]"
        }
      ],
      "stateMutability": "view",
      "type": "function"
    },
    {
      "inputs": [
        {
          "internalType": "address",
          "name": "student",
          "type": "address"
        }
      ],
      "name": "getStudentEntryCount",
      "outputs": [
        {
          "internalType": "uint256",
          "name": "",
          "type": "uint256"
        }
      ],
      "stateMutability": "view",
      "type": "function"
    },
    {
      "inputs": [
        {
          "internalType": "address",
          "name": "student",
          "type": "address"
        }
      ],
      "name": "getStudentStats",
      "outputs": [
        {
          "internalType": "uint32",
          "name": "averageScore",
          "type": "uint32"
        },
        {
          "internalType": "uint32",
          "name": "count",
          "type": "uint32"
        }
      ],
      "stateMutability": "view",
      "type": "function"
    },
    {
      "inputs": [
        {
          "internalType": "uint256",
          "name": "requestId",
          "type": "uint256"
        },
        {
          "internalType": "bytes",
          "name": "cleartexts",
          "type": "bytes"
        },
        {
          "internalType": "bytes[]",
          "name": "",
          "type": "bytes[]"
        }
      ],
      "name": "globalStatsCallback",
      "outputs": [
        {
          "internalType": "bool",
          "name": "",
          "type": "bool"
        }
      ],
      "stateMutability": "nonpayable",
      "type": "function"
    },
    {
      "inputs": [
        {
          "internalType": "uint256",
          "name": "",
          "type": "uint256"
        }
      ],
      "name": "gradeEntries",
      "outputs": [
        {
          "internalType": "address",
          "name": "student",
          "type": "address"
        },
        {
          "internalType": "string",
          "name": "subject",
          "type": "string"
        },
        {
          "internalType": "euint32",
          "name": "encryptedScore",
          "type": "bytes32"
        },
        {
          "internalType": "uint256",
          "name": "timestamp",
          "type": "uint256"
        },
        {
          "internalType": "bool",
          "name": "isActive",
          "type": "bool"
        }
      ],
      "stateMutability": "view",
      "type": "function"
    },
    {
      "inputs": [],
      "name": "isGlobalStatsFinalized",
      "outputs": [
        {
          "internalType": "bool",
          "name": "",
          "type": "bool"
        }
      ],
      "stateMutability": "view",
      "type": "function"
    },
    {
      "inputs": [
        {
          "internalType": "address",
          "name": "student",
          "type": "address"
        }
      ],
      "name": "isStudentStatsFinalized",
      "outputs": [
        {
          "internalType": "bool",
          "name": "",
          "type": "bool"
        }
      ],
      "stateMutability": "view",
      "type": "function"
    },
    {
      "inputs": [],
      "name": "protocolId",
      "outputs": [
        {
          "internalType": "uint256",
          "name": "",
          "type": "uint256"
        }
      ],
      "stateMutability": "pure",
      "type": "function"
    },
    {
      "inputs": [],
      "name": "requestGlobalStats",
      "outputs": [],
      "stateMutability": "nonpayable",
      "type": "function"
    },
    {
      "inputs": [
        {
          "internalType": "address",
          "name": "student",
          "type": "address"
        }
      ],
      "name": "requestStudentStats",
      "outputs": [],
      "stateMutability": "nonpayable",
      "type": "function"
    },
    {
      "inputs": [
        {
          "internalType": "address",
          "name": "",
          "type": "address"
        },
        {
          "internalType": "uint256",
          "name": "",
          "type": "uint256"
        }
      ],
      "name": "studentEntries",
      "outputs": [
        {
          "internalType": "uint256",
          "name": "",
          "type": "uint256"
        }
      ],
      "stateMutability": "view",
      "type": "function"
    },
    {
      "inputs": [
        {
          "internalType": "address",
          "name": "",
          "type": "address"
        }
      ],
      "name": "studentEntryCount",
      "outputs": [
        {
          "internalType": "uint256",
          "name": "",
          "type": "uint256"
        }
      ],
      "stateMutability": "view",
      "type": "function"
    },
    {
      "inputs": [
        {
          "internalType": "uint256",
          "name": "requestId",
          "type": "uint256"
        },
        {
          "internalType": "bytes",
          "name": "cleartexts",
          "type": "bytes"
        },
        {
          "internalType": "bytes[]",
          "name": "",
          "type": "bytes[]"
        }
      ],
      "name": "studentStatsCallback",
      "outputs": [
        {
          "internalType": "bool",
          "name": "",
          "type": "bool"
        }
      ],
      "stateMutability": "nonpayable",
      "type": "function"
    },
    {
      "inputs": [
        {
          "internalType": "externalEuint32",
          "name": "encryptedScore",
          "type": "bytes32"
        },
        {
          "internalType": "bytes",
          "name": "inputProof",
          "type": "bytes"
        },
        {
          "internalType": "string",
          "name": "subject",
          "type": "string"
        }
      ],
      "name": "submitGrade",
      "outputs": [],
      "stateMutability": "nonpayable",
      "type": "function"
    }
  ],
  "transactionHash": "0xf166fb3b576cd4d5bd47b6a178bbdbec6199863f6ccb640bd83c2b34ebd58856",
  "args": [],
  "numDeployments": 1,
  "solcInputHash": "c17b7e327ee738e5058ac01287c7b779",
  "bytecode": "0x608060405234801561000f575f5ffd5b5061018a6100ae604080516080810182525f80825260208201819052918101829052606081019190915250604080516080810182527350157cffd6bbfa2dece204a89ec419c23ef5755d815273cd3ab3bd6bcc0c0bf3e27912a92043e817b1cf69602082015273a02cda4ca3a71d7c46997716f4283aa851c2881291810191909152731364cbbf2cdf5032c47d8226a6f6fbd2afcdacac606082015290565b80517f9e7b61f58c47dc699ac88507c4f5bb9f121c03808c5676a8078fe583e464970080546001600160a01b03199081166001600160a01b039384161790915560208301517f9e7b61f58c47dc699ac88507c4f5bb9f121c03808c5676a8078fe583e46497018054831691841691909117905560408301517f9e7b61f58c47dc699ac88507c4f5bb9f121c03808c5676a8078fe583e46497028054831691841691909117905560608301517f9e7b61f58c47dc699ac88507c4f5bb9f121c03808c5676a8078fe583e46497038054909216921691909117905550565b61230c806101975f395ff3fe608060405234801561000f575f5ffd5b5060043610610179575f3560e01c806365a3ab52116100d2578063918e02a411610088578063ae63680511610063578063ae63680514610397578063bae78d7b146103aa578063da1f12ab146103cd575f5ffd5b8063918e02a4146103605780639b6a84a714610371578063a334ed1714610384575f5ffd5b8063774915e2116100b8578063774915e2146103265780637a360e65146103395780638b5aa29314610341575f5ffd5b806365a3ab52146102ee5780636b4169c314610301575f5ffd5b80632393a5b91161013257806356aa80cc1161010d57806356aa80cc1461026e5780635aaa46cb146102765780635e466d11146102ce575f5ffd5b80632393a5b9146102335780632e24c58e146102465780633719485614610259575f5ffd5b8063125c944811610162578063125c9448146101c1578063179144c6146101e55780631ccc746514610220575f5ffd5b80630cbb0f831461017d5780630ce4fe7e14610199575b5f5ffd5b61018660015481565b6040519081526020015b60405180910390f35b6101866101a7366004611c33565b6001600160a01b03165f9081526003602052604090205490565b6101d46101cf366004611c4c565b6103d5565b604051610190959493929190611c91565b6102106101f3366004611c33565b6001600160a01b03165f9081526009602052604090205460ff1690565b6040519015158152602001610190565b61021061022e366004611d88565b610498565b600b54640100000000900460ff16610210565b610186610254366004611e89565b6106b6565b61026c610267366004611c4c565b6106e1565b005b61026c61093b565b6102b4610284366004611c33565b6001600160a01b03165f90815260046020908152604080832054600590925290912054909163ffffffff90911690565b6040805192835263ffffffff909116602083015201610190565b6102e16102dc366004611c33565b610a9d565b6040516101909190611eb1565b6102106102fc366004611d88565b610b06565b610309610d7c565b6040805163ffffffff938416815292909116602083015201610190565b61026c610334366004611ef3565b610df0565b600154610186565b61018661034f366004611c33565b60036020525f908152604090205481565b60065460075463ffffffff166102b4565b61030961037f366004611c33565b611161565b61026c610392366004611c33565b6111fd565b6101866103a5366004611c4c565b611404565b6103bd6103b8366004611c4c565b61146b565b6040516101909493929190611f95565b612711610186565b5f60208190529081526040902080546001820180546001600160a01b03909216929161040090611fce565b80601f016020809104026020016040519081016040528092919081815260200182805461042c90611fce565b80156104775780601f1061044e57610100808354040283529160200191610477565b820191905f5260205f20905b81548152906001019060200180831161045a57829003601f168201915b50505050600283015460038401546004909401549293909290915060ff1685565b5f838152600c602052604081205460ff166104ec5760405162461bcd60e51b815260206004820152600f60248201526e125b9d985b1a59081c995c5d595cdd608a1b60448201526064015b60405180910390fd5b600b54640100000000900460ff16156105475760405162461bcd60e51b815260206004820152601160248201527f416c72656164792066696e616c697a656400000000000000000000000000000060448201526064016104e3565b60075463ffffffff1661059c5760405162461bcd60e51b815260206004820152601160248201527f4e6f2061637469766520656e747269657300000000000000000000000000000060448201526064016104e3565b5f6004845110156105ef5760405162461bcd60e51b815260206004820152601860248201527f496e76616c696420636c65617274657874206c656e677468000000000000000060448201526064016104e3565b50602083015160075460e09190911c9063ffffffff1661060f575f610622565b6007546106229063ffffffff168261201a565b600b805464ffffffffff191663ffffffff928316176401000000001781555f878152600c602052604090819020805460ff19169055905460075491517f7f1644b023d5c01aa26b53a95b16b69f8d81d3678742942d9c78ca1e649de341936106a19392811692169063ffffffff92831681529116602082015260400190565b60405180910390a160019150505b9392505050565b6002602052815f5260405f2081815481106106cf575f80fd5b905f5260205f20015f91509150505481565b60015481106107325760405162461bcd60e51b815260206004820152601460248201527f456e74727920646f6573206e6f7420657869737400000000000000000000000060448201526064016104e3565b5f81815260208190526040902080546001600160a01b031633146107985760405162461bcd60e51b815260206004820152600e60248201527f4e6f7420617574686f72697a656400000000000000000000000000000000000060448201526064016104e3565b600481015460ff166107ec5760405162461bcd60e51b815260206004820152601560248201527f456e74727920616c72656164792064656c65746564000000000000000000000060448201526064016104e3565b335f90815260046020526040902054600282015461080a919061153f565b335f9081526004602090815260408083209390935560059052908120805463ffffffff16916108388361204d565b825463ffffffff9182166101009390930a928302919092021990911617905550335f9081526003602052604081208054916108728361206b565b9190505550610887600654826002015461153f565b6006556007805463ffffffff16905f61089f8361204d565b825463ffffffff9182166101009390930a9283029190920219909116179055506004808201805460ff19169055335f90815260209190915260409020546108e59061156d565b50335f818152600460205260409020546108fe9161157c565b5061090a60065461156d565b50604051339083907f54c54d8d8e69bf75b9f10a94edf7e2b5068b49f0e127faa52692579c892047a2905f90a35050565b60075463ffffffff166109905760405162461bcd60e51b815260206004820152601260248201527f4e6f206461746120746f2064656372797074000000000000000000000000000060448201526064016104e3565b600b54640100000000900460ff16156109eb5760405162461bcd60e51b815260206004820152601e60248201527f476c6f62616c20737461747320616c72656164792066696e616c697a6564000060448201526064016104e3565b6040805160018082528183019092525f9160208083019080368337019050509050610a1560065490565b815f81518110610a2757610a27612080565b60209081029190910101525f610a4482631ccc746560e01b61158e565b5f818152600c602052604090819020805460ff19166001179055519091507f283d77d7931fbcd8f467bf5bdd2bbdf1882ebd28e9d673f55ea1d39b769fdc6390610a919083815260200190565b60405180910390a15050565b6001600160a01b0381165f90815260026020908152604091829020805483518184028101840190945280845260609392830182828015610afa57602002820191905f5260205f20905b815481526020019060010190808311610ae6575b50505050509050919050565b5f838152600a60205260408120546001600160a01b031680610b5c5760405162461bcd60e51b815260206004820152600f60248201526e125b9d985b1a59081c995c5d595cdd608a1b60448201526064016104e3565b6001600160a01b0381165f9081526009602052604090205460ff1615610bc45760405162461bcd60e51b815260206004820152601160248201527f416c72656164792066696e616c697a656400000000000000000000000000000060448201526064016104e3565b6001600160a01b0381165f9081526005602052604090205463ffffffff16610c2e5760405162461bcd60e51b815260206004820152600760248201527f4e6f20646174610000000000000000000000000000000000000000000000000060448201526064016104e3565b5f600485511015610c815760405162461bcd60e51b815260206004820152601860248201527f496e76616c696420636c65617274657874206c656e677468000000000000000060448201526064016104e3565b506020848101516001600160a01b0383165f908152600590925260409091205460e09190911c9063ffffffff1680610cb9575f610cc3565b610cc3818361201a565b6001600160a01b0384165f818152600860208181526040808420805463ffffffff191663ffffffff97881617815560098352818520805460ff191660011790558d8552600a8352818520805473ffffffffffffffffffffffffffffffffffffffff19169055938590529181529154815190851681529385169184019190915290917f520226869ef8bb49ee7cad8ebb794a1c6cc07f96d6123e19fbf6df22753375b2910160405180910390a25060019695505050505050565b600b545f908190640100000000900460ff16610dda5760405162461bcd60e51b815260206004820152601e60248201527f476c6f62616c207374617473206e6f7420617661696c61626c6520796574000060448201526064016104e3565b5050600b5460075463ffffffff91821692911690565b5f815111610e405760405162461bcd60e51b815260206004820152601760248201527f5375626a6563742063616e6e6f7420626520656d70747900000000000000000060448201526064016104e3565b606481511115610e925760405162461bcd60e51b815260206004820152601060248201527f5375626a65637420746f6f206c6f6e670000000000000000000000000000000060448201526064016104e3565b5f610ed28585858080601f0160208091040260200160405190810160405280939291908181526020018383808284375f9201919091525061159a92505050565b600180549192505f919082610ee683612094565b909155506040805160a08101825233815260208082018781528284018790524260608401526001608084018190525f86815292839052939091208251815473ffffffffffffffffffffffffffffffffffffffff19166001600160a01b03909116178155905193945090929091820190610f5f90826120f8565b5060408281015160028381019190915560608401516003808501919091556080909401516004909301805460ff191693151593909317909255335f8181526020938452828120805460018101825590825284822001869055908152929091528120805491610fcc83612094565b9091555050335f9081526005602052604081205463ffffffff16900361100257335f90815260046020526040902082905561102b565b335f9081526004602052604090205461101b90836115a7565b335f908152600460205260409020555b335f908152600560205260408120805463ffffffff169161104b836121b3565b82546101009290920a63ffffffff818102199093169183160217909155600754165f03905061107e57600682905561108e565b61108a600654836115a7565b6006555b6007805463ffffffff16905f6110a3836121b3565b91906101000a81548163ffffffff021916908363ffffffff160217905550506110cb8261156d565b506110d6823361157c565b50335f908152600460205260409020546110ef9061156d565b50335f818152600460205260409020546111089161157c565b5061111460065461156d565b50336001600160a01b0316817f50897ac5ec472453254880dd4abf5869a20b4e8b74b7c904b9f5ff6ec4fb612b85426040516111519291906121d7565b60405180910390a3505050505050565b6001600160a01b0381165f90815260096020526040812054819060ff166111ca5760405162461bcd60e51b815260206004820152601f60248201527f53747564656e74207374617473206e6f7420617661696c61626c65207965740060448201526064016104e3565b50506001600160a01b03165f9081526008602090815260408083205460059092529091205463ffffffff91821692911690565b6001600160a01b03811633146112555760405162461bcd60e51b815260206004820152601a60248201527f43616e206f6e6c792072657175657374206f776e20737461747300000000000060448201526064016104e3565b6001600160a01b0381165f9081526005602052604090205463ffffffff166112bf5760405162461bcd60e51b815260206004820152601860248201527f4e6f206461746120666f7220746869732073747564656e74000000000000000060448201526064016104e3565b6001600160a01b0381165f9081526009602052604090205460ff16156113275760405162461bcd60e51b815260206004820152601f60248201527f53747564656e7420737461747320616c72656164792066696e616c697a65640060448201526064016104e3565b6040805160018082528183019092525f9160208083019080368337019050506001600160a01b0383165f90815260046020526040902054909150815f8151811061137357611373612080565b60209081029190910101525f611390826332d1d5a960e11b61158e565b5f818152600a6020908152604091829020805473ffffffffffffffffffffffffffffffffffffffff19166001600160a01b038816908117909155915183815292935090917f0d51d27ae053e7a38806ee1e270eb8fd30c623b04abada95235b326598030c54910160405180910390a2505050565b5f60015482106114565760405162461bcd60e51b815260206004820152601460248201527f456e74727920646f6573206e6f7420657869737400000000000000000000000060448201526064016104e3565b505f9081526020819052604090206002015490565b5f8181526020819052604081208054600382015460048301546001840180546060958795869591946001600160a01b03909116939260ff9091169083906114b190611fce565b80601f01602080910402602001604051908101604052809291908181526020018280546114dd90611fce565b80156115285780601f106114ff57610100808354040283529160200191611528565b820191905f5260205f20905b81548152906001019060200180831161150b57829003601f168201915b505050505092509450945094509450509193509193565b5f826115515761154e5f6115d5565b92505b816115625761155f5f6115d5565b91505b6106af83835f6115ed565b5f61157882306116e8565b5090565b5f61158783836116e8565b5090919050565b5f6106af83835f611771565b5f6106af8383600461189f565b5f826115b9576115b65f6115d5565b92505b816115ca576115c75f6115d5565b91505b6106af83835f6119bf565b5f6115e78263ffffffff166004611a74565b92915050565b5f5f82156116005750600160f81b611603565b505f5b7f9e7b61f58c47dc699ac88507c4f5bb9f121c03808c5676a8078fe583e4649701546040516303056db360e31b815260048101879052602481018690527fff00000000000000000000000000000000000000000000000000000000000000831660448201527f9e7b61f58c47dc699ac88507c4f5bb9f121c03808c5676a8078fe583e4649700916001600160a01b03169063182b6d98906064015b6020604051808303815f875af11580156116ba573d5f5f3e3d5ffd5b505050506040513d601f19601f820116820180604052508101906116de91906121f8565b9695505050505050565b5f7f9e7b61f58c47dc699ac88507c4f5bb9f121c03808c5676a8078fe583e46497008054604051635ca4b5b160e11b8152600481018690526001600160a01b03858116602483015292935091169063b9496b62906044015f604051808303815f87803b158015611756575f5ffd5b505af1158015611768573d5f5f3e3d5ffd5b50505050505050565b7f878245876662ba28a480c5ea71726db859fb50222b0a3d7cbbc21cfa336faf0080547f9e7b61f58c47dc699ac88507c4f5bb9f121c03808c5676a8078fe583e46497008054604051637d6e912360e11b81529293926001600160a01b039091169063fadd2246906117e7908990600401612249565b5f604051808303815f87803b1580156117fe575f5ffd5b505af1158015611810573d5f5f3e3d5ffd5b5050506002820154604051633263b83b60e01b81526001600160a01b039091169150633263b83b90869061184c9087908b908b9060040161225b565b5f604051808303818588803b158015611863575f5ffd5b505af1158015611875573d5f5f3e3d5ffd5b50505050506118848387611b31565b8154825f61189183612094565b919050555050509392505050565b7f9e7b61f58c47dc699ac88507c4f5bb9f121c03808c5676a8078fe583e46497015460405163196d0b9b60e01b81525f917f9e7b61f58c47dc699ac88507c4f5bb9f121c03808c5676a8078fe583e4649700916001600160a01b039091169063196d0b9b906119189088903390899089906004016122ac565b6020604051808303815f875af1158015611934573d5f5f3e3d5ffd5b505050506040513d601f19601f8201168201806040525081019061195891906121f8565b8154604051630f8e573b60e21b8152600481018390523360248201529193506001600160a01b031690633e395cec906044015f604051808303815f87803b1580156119a1575f5ffd5b505af11580156119b3573d5f5f3e3d5ffd5b50505050509392505050565b5f5f82156119d25750600160f81b6119d5565b505f5b7f9e7b61f58c47dc699ac88507c4f5bb9f121c03808c5676a8078fe583e46497015460405163022f65e760e31b815260048101879052602481018690527fff00000000000000000000000000000000000000000000000000000000000000831660448201527f9e7b61f58c47dc699ac88507c4f5bb9f121c03808c5676a8078fe583e4649700916001600160a01b03169063117b2f389060640161169e565b7f9e7b61f58c47dc699ac88507c4f5bb9f121c03808c5676a8078fe583e464970154604051639cd07acb60e01b81525f917f9e7b61f58c47dc699ac88507c4f5bb9f121c03808c5676a8078fe583e4649700916001600160a01b0390911690639cd07acb90611ae990879087906004016122eb565b6020604051808303815f875af1158015611b05573d5f5f3e3d5ffd5b505050506040513d601f19601f82011682018060405250810190611b2991906121f8565b949350505050565b5f8281527f878245876662ba28a480c5ea71726db859fb50222b0a3d7cbbc21cfa336faf0160205260409020547f878245876662ba28a480c5ea71726db859fb50222b0a3d7cbbc21cfa336faf009015611b9e57604051633f06d22b60e01b815260040160405180910390fd5b5f83815260018201602090815260409091208351611bbe92850190611bc4565b50505050565b828054828255905f5260205f20908101928215611bfd579160200282015b82811115611bfd578251825591602001919060010190611be2565b506115789291505b80821115611578575f8155600101611c05565b80356001600160a01b0381168114611c2e575f5ffd5b919050565b5f60208284031215611c43575f5ffd5b6106af82611c18565b5f60208284031215611c5c575f5ffd5b5035919050565b5f81518084528060208401602086015e5f602082860101526020601f19601f83011685010191505092915050565b6001600160a01b038616815260a060208201525f611cb260a0830187611c63565b6040830195909552506060810192909252151560809091015292915050565b634e487b7160e01b5f52604160045260245ffd5b604051601f8201601f1916810167ffffffffffffffff81118282101715611d0e57611d0e611cd1565b604052919050565b5f82601f830112611d25575f5ffd5b8135602083015f5f67ffffffffffffffff841115611d4557611d45611cd1565b50601f8301601f1916602001611d5a81611ce5565b915050828152858383011115611d6e575f5ffd5b828260208301375f92810160200192909252509392505050565b5f5f5f60608486031215611d9a575f5ffd5b83359250602084013567ffffffffffffffff811115611db7575f5ffd5b611dc386828701611d16565b925050604084013567ffffffffffffffff811115611ddf575f5ffd5b8401601f81018613611def575f5ffd5b803567ffffffffffffffff811115611e0957611e09611cd1565b8060051b611e1960208201611ce5565b91825260208184018101929081019089841115611e34575f5ffd5b6020850192505b83831015611e7a57823567ffffffffffffffff811115611e59575f5ffd5b611e688b602083890101611d16565b83525060209283019290910190611e3b565b80955050505050509250925092565b5f5f60408385031215611e9a575f5ffd5b611ea383611c18565b946020939093013593505050565b602080825282518282018190525f918401906040840190835b81811015611ee8578351835260209384019390920191600101611eca565b509095945050505050565b5f5f5f5f60608587031215611f06575f5ffd5b84359350602085013567ffffffffffffffff811115611f23575f5ffd5b8501601f81018713611f33575f5ffd5b803567ffffffffffffffff811115611f49575f5ffd5b876020828401011115611f5a575f5ffd5b60209190910193509150604085013567ffffffffffffffff811115611f7d575f5ffd5b611f8987828801611d16565b91505092959194509250565b6001600160a01b0385168152608060208201525f611fb66080830186611c63565b60408301949094525090151560609091015292915050565b600181811c90821680611fe257607f821691505b60208210810361200057634e487b7160e01b5f52602260045260245ffd5b50919050565b634e487b7160e01b5f52601160045260245ffd5b5f63ffffffff83168061203b57634e487b7160e01b5f52601260045260245ffd5b8063ffffffff84160491505092915050565b5f63ffffffff82168061206257612062612006565b5f190192915050565b5f8161207957612079612006565b505f190190565b634e487b7160e01b5f52603260045260245ffd5b5f600182016120a5576120a5612006565b5060010190565b601f8211156120f357805f5260205f20601f840160051c810160208510156120d15750805b601f840160051c820191505b818110156120f0575f81556001016120dd565b50505b505050565b815167ffffffffffffffff81111561211257612112611cd1565b612126816121208454611fce565b846120ac565b6020601f821160018114612158575f83156121415750848201515b5f19600385901b1c1916600184901b1784556120f0565b5f84815260208120601f198516915b828110156121875787850151825560209485019460019092019101612167565b50848210156121a457868401515f19600387901b60f8161c191681555b50505050600190811b01905550565b5f63ffffffff821663ffffffff81036121ce576121ce612006565b60010192915050565b604081525f6121e96040830185611c63565b90508260208301529392505050565b5f60208284031215612208575f5ffd5b5051919050565b5f8151808452602084019350602083015f5b8281101561223f578151865260209586019590910190600101612221565b5093949350505050565b602081525f6106af602083018461220f565b838152606060208201525f612273606083018561220f565b905063ffffffff60e01b83166040830152949350505050565b605481106122a857634e487b7160e01b5f52602160045260245ffd5b9052565b8481526001600160a01b0384166020820152608060408201525f6122d36080830185611c63565b90506122e2606083018461228c565b95945050505050565b828152604081016106af602083018461228c56fea164736f6c634300081b000a",
  "devdoc": {
    "details": "Only students can decrypt their own scores. Schools can only view aggregated statistics.",
    "kind": "dev",
    "methods": {
      "deleteGrade(uint256)": {
        "params": {
          "entryId": "Entry ID to delete"
        }
      },
      "getEncryptedGlobalStats()": {
        "returns": {
          "count": "Total active entry count",
          "encryptedSum": "Encrypted sum of all scores"
        }
      },
      "getEncryptedScore(uint256)": {
        "params": {
          "entryId": "Entry ID"
        },
        "returns": {
          "_0": "Encrypted score value"
        }
      },
      "getEncryptedStudentStats(address)": {
        "params": {
          "student": "Student address"
        },
        "returns": {
          "count": "Entry count for this student",
          "encryptedSum": "Encrypted sum of student's scores"
        }
      },
      "getEntry(uint256)": {
        "params": {
          "entryId": "Entry ID"
        },
        "returns": {
          "isActive": "Active status",
          "student": "Student address",
          "subject": "Subject name",
          "timestamp": "Submission timestamp"
        }
      },
      "getEntryCount()": {
        "returns": {
          "_0": "Total entry count"
        }
      },
      "getGlobalStats()": {
        "returns": {
          "averageScore": "Global average score",
          "totalCount": "Total active entry count"
        }
      },
      "getStudentEntries(address)": {
        "params": {
          "student": "Student address"
        },
        "returns": {
          "_0": "Array of entry IDs"
        }
      },
      "getStudentEntryCount(address)": {
        "params": {
          "student": "Student address"
        },
        "returns": {
          "_0": "Entry count for this student"
        }
      },
      "getStudentStats(address)": {
        "params": {
          "student": "Student address"
        },
        "returns": {
          "averageScore": "Average score for this student",
          "count": "Entry count for this student"
        }
      },
      "isGlobalStatsFinalized()": {
        "returns": {
          "_0": "Whether global statistics have been decrypted"
        }
      },
      "isStudentStatsFinalized(address)": {
        "params": {
          "student": "Student address"
        },
        "returns": {
          "_0": "Whether student statistics have been decrypted"
        }
      },
      "requestStudentStats(address)": {
        "params": {
          "student": "Student address (must be msg.sender)"
        }
      },
      "submitGrade(bytes32,bytes,string)": {
        "params": {
          "encryptedScore": "Encrypted score value (0-100)",
          "inputProof": "Input proof for encrypted score",
          "subject": "Subject name (e.g., \"Mathematics\", \"Physics\")"
        }
      }
    },
    "title": "EncryptedGradeRecord - Privacy-Preserving Grade Management System",
    "version": 1
  },
  "userdoc": {
    "errors": {
      "HandlesAlreadySavedForRequestID()": [
        {
          "notice": "Returned if some handles were already saved for corresponding ID."
        }
      ]
    },
    "kind": "user",
    "methods": {
      "deleteGrade(uint256)": {
        "notice": "Delete a grade entry (only callable by the student who submitted it)"
      },
      "getEncryptedGlobalStats()": {
        "notice": "Get encrypted global statistics (for school view)"
      },
      "getEncryptedScore(uint256)": {
        "notice": "Get entry's encrypted score (only accessible by student and contract)"
      },
      "getEncryptedStudentStats(address)": {
        "notice": "Get encrypted statistics for a specific student"
      },
      "getEntry(uint256)": {
        "notice": "Get grade entry information"
      },
      "getEntryCount()": {
        "notice": "Get total entry count"
      },
      "getGlobalStats()": {
        "notice": "Get decrypted global statistics (only available after finalization)"
      },
      "getStudentEntries(address)": {
        "notice": "Get student's entry IDs"
      },
      "getStudentEntryCount(address)": {
        "notice": "Get student's entry count"
      },
      "getStudentStats(address)": {
        "notice": "Get decrypted student statistics (only available after finalization)"
      },
      "globalStatsCallback(uint256,bytes,bytes[])": {
        "notice": "Callback function for global statistics decryption"
      },
      "isGlobalStatsFinalized()": {
        "notice": "Check if global statistics are available"
      },
      "isStudentStatsFinalized(address)": {
        "notice": "Check if student statistics are available"
      },
      "requestGlobalStats()": {
        "notice": "Request decryption of global statistics (for school view)"
      },
      "requestStudentStats(address)": {
        "notice": "Request decryption of student-specific statistics"
      },
      "studentStatsCallback(uint256,bytes,bytes[])": {
        "notice": "Callback function for student statistics decryption"
      },
      "submitGrade(bytes32,bytes,string)": {
        "notice": "Submit a new grade entry"
      }
    },
    "notice": "Students can submit encrypted exam scores. FHE computes average scores and growth trends.",
    "version": 1
  },
  "storageLayout": {
    "storage": [
      {
        "astId": 39053,
        "contract": "contracts/EncryptedGradeRecord.sol:EncryptedGradeRecord",
        "label": "gradeEntries",
        "offset": 0,
        "slot": "0",
        "type": "t_mapping(t_uint256,t_struct(GradeEntry)39048_storage)"
      },
      {
        "astId": 39055,
        "contract": "contracts/EncryptedGradeRecord.sol:EncryptedGradeRecord",
        "label": "entryCount",
        "offset": 0,
        "slot": "1",
        "type": "t_uint256"
      },
      {
        "astId": 39060,
        "contract": "contracts/EncryptedGradeRecord.sol:EncryptedGradeRecord",
        "label": "studentEntries",
        "offset": 0,
        "slot": "2",
        "type": "t_mapping(t_address,t_array(t_uint256)dyn_storage)"
      },
      {
        "astId": 39064,
        "contract": "contracts/EncryptedGradeRecord.sol:EncryptedGradeRecord",
        "label": "studentEntryCount",
        "offset": 0,
        "slot": "3",
        "type": "t_mapping(t_address,t_uint256)"
      },
      {
        "astId": 39069,
        "contract": "contracts/EncryptedGradeRecord.sol:EncryptedGradeRecord",
        "label": "_encryptedStudentSum",
        "offset": 0,
        "slot": "4",
        "type": "t_mapping(t_address,t_userDefinedValueType(euint32)40048)"
      },
      {
        "astId": 39073,
        "contract": "contracts/EncryptedGradeRecord.sol:EncryptedGradeRecord",
        "label": "_studentEntryCount",
        "offset": 0,
        "slot": "5",
        "type": "t_mapping(t_address,t_uint32)"
      },
      {
        "astId": 39076,
        "contract": "contracts/EncryptedGradeRecord.sol:EncryptedGradeRecord",
        "label": "_encryptedGlobalSum",
        "offset": 0,
        "slot": "6",
        "type": "t_userDefinedValueType(euint32)40048"
      },
      {
        "astId": 39078,
        "contract": "contracts/EncryptedGradeRecord.sol:EncryptedGradeRecord",
        "label": "_globalEntryCount",
        "offset": 0,
        "slot": "7",
        "type": "t_uint32"
      },
      {
        "astId": 39082,
        "contract": "contracts/EncryptedGradeRecord.sol:EncryptedGradeRecord",
        "label": "_decryptedStudentAverage",
        "offset": 0,
        "slot": "8",
        "type": "t_mapping(t_address,t_uint32)"
      },
      {
        "astId": 39086,
        "contract": "contracts/EncryptedGradeRecord.sol:EncryptedGradeRecord",
        "label": "_studentStatsFinalized",
        "offset": 0,
        "slot": "9",
        "type": "t_mapping(t_address,t_bool)"
      },
      {
        "astId": 39090,
        "contract": "contracts/EncryptedGradeRecord.sol:EncryptedGradeRecord",
        "label": "_studentStatsRequest",
        "offset": 0,
        "slot": "10",
        "type": "t_mapping(t_uint256,t_address)"
      },
      {
        "astId": 39092,
        "contract": "contracts/EncryptedGradeRecord.sol:EncryptedGradeRecord",
        "label": "_decryptedGlobalAverage",
        "offset": 0,
        "slot": "11",
        "type": "t_uint32"
      },
      {
        "astId": 39094,
        "contract": "contracts/EncryptedGradeRecord.sol:EncryptedGradeRecord",
        "label": "_globalStatsFinalized",
        "offset": 4,
        "slot": "11",
        "type": "t_bool"
      },
      {
        "astId": 39098,
        "contract": "contracts/EncryptedGradeRecord.sol:EncryptedGradeRecord",
        "label": "_globalStatsRequest",
        "offset": 0,
        "slot": "12",
        "type": "t_mapping(t_uint256,t_bool)"
      }
    ],
    "types": {
      "t_address": {
        "encoding": "inplace",
        "label": "address",
        "numberOfBytes": "20"
      },
      "t_array(t_uint256)dyn_storage": {
        "base": "t_uint256",
        "encoding": "dynamic_array",
        "label": "uint256[]",
        "numberOfBytes": "32"
      },
      "t_bool": {
        "encoding": "inplace",
        "label": "bool",
        "numberOfBytes": "1"
      },
      "t_mapping(t_address,t_array(t_uint256)dyn_storage)": {
        "encoding": "mapping",
        "key": "t_address",
        "label": "mapping(address => uint256[])",
        "numberOfBytes": "32",
        "value": "t_array(t_uint256)dyn_storage"
      },
      "t_mapping(t_address,t_bool)": {
        "encoding": "mapping",
        "key": "t_address",
        "label": "mapping(address => bool)",
        "numberOfBytes": "32",
        "value": "t_bool"
      },
      "t_mapping(t_address,t_uint256)": {
        "encoding": "mapping",
        "key": "t_address",
        "label": "mapping(address => uint256)",
        "numberOfBytes": "32",
        "value": "t_uint256"
      },
      "t_mapping(t_address,t_uint32)": {
        "encoding": "mapping",
        "key": "t_address",
        "label": "mapping(address => uint32)",
        "numberOfBytes": "32",
        "value": "t_uint32"
      },
      "t_mapping(t_address,t_userDefinedValueType(euint32)40048)": {
        "encoding": "mapping",
        "key": "t_address",
        "label": "mapping(address => euint32)",
        "numberOfBytes": "32",
        "value": "t_userDefinedValueType(euint32)40048"
      },
      "t_mapping(t_uint256,t_address)": {
        "encoding": "mapping",
        "key": "t_uint256",
        "label": "mapping(uint256 => address)",
        "numberOfBytes": "32",
        "value": "t_address"
      },
      "t_mapping(t_uint256,t_bool)": {
        "encoding": "mapping",
        "key": "t_uint256",
        "label": "mapping(uint256 => bool)",
        "numberOfBytes": "32",
        "value": "t_bool"
      },
      "t_mapping(t_uint256,t_struct(GradeEntry)39048_storage)": {
        "encoding": "mapping",
        "key": "t_uint256",
        "label": "mapping(uint256 => struct EncryptedGradeRecord.GradeEntry)",
        "numberOfBytes": "32",
        "value": "t_struct(GradeEntry)39048_storage"
      },
      "t_string_storage": {
        "encoding": "bytes",
        "label": "string",
        "numberOfBytes": "32"
      },
      "t_struct(GradeEntry)39048_storage": {
        "encoding": "inplace",
        "label": "struct EncryptedGradeRecord.GradeEntry",
        "members": [
          {
            "astId": 39038,
            "contract": "contracts/EncryptedGradeRecord.sol:EncryptedGradeRecord",
            "label": "student",
            "offset": 0,
            "slot": "0",
            "type": "t_address"
          },
          {
            "astId": 39040,
            "contract": "contracts/EncryptedGradeRecord.sol:EncryptedGradeRecord",
            "label": "subject",
            "offset": 0,
            "slot": "1",
            "type": "t_string_storage"
          },
          {
            "astId": 39043,
            "contract": "contracts/EncryptedGradeRecord.sol:EncryptedGradeRecord",
            "label": "encryptedScore",
            "offset": 0,
            "slot": "2",
            "type": "t_userDefinedValueType(euint32)40048"
          },
          {
            "astId": 39045,
            "contract": "contracts/EncryptedGradeRecord.sol:EncryptedGradeRecord",
            "label": "timestamp",
            "offset": 0,
            "slot": "3",
            "type": "t_uint256"
          },
          {
            "astId": 39047,
            "contract": "contracts/EncryptedGradeRecord.sol:EncryptedGradeRecord",
            "label": "isActive",
            "offset": 0,
            "slot": "4",
            "type": "t_bool"
          }
        ],
        "numberOfBytes": "160"
      },
      "t_uint256": {
        "encoding": "inplace",
        "label": "uint256",
        "numberOfBytes": "32"
      },
      "t_uint32": {
        "encoding": "inplace",
        "label": "uint32",
        "numberOfBytes": "4"
      },
      "t_userDefinedValueType(euint32)40048": {
        "encoding": "inplace",
        "label": "euint32",
        "numberOfBytes": "32"
      }
    }
  }
}